:1000000033C000009CC100004AC0000048C000008E
:1000100046C0000044C0000042C0000040C00000D4
:100020003EC000003CC0000051C0000039C00000CC
:1000300036C0000034C0000032C0000030C00000F4
:1000400090C100002CC000002AC0000028C00000A1
:1000500026C000009BC1000022C0000020C000009C
:100060001EC000001CC0000011241FBECFEFD8E04E
:10007000DEBFCDBF18E0A0E0B1E0E6ECF9E002C0E1
:1000800005900D92A632B107D9F728E0A6E2B8E0B4
:1000900001C01D92A835B207E1F7C6D192C4B0CF16
:1000A0001F920F920FB60F9211248F938BB180582D
:1000B0008BB985E38A95F1F700008BB180588BB935
:1000C0008F910F900FBE0F901F9018951F920F9257
:1000D0000FB60F921124CF92DF92EF92FF922F93DF
:1000E0003F934F935F936F937F938F939F93AF93C0
:1000F000BF93EF93FF938091810086FF0EC0E1E8EC
:10010000F0E080818F7B80838091860090918700D2
:1001100090932708809326084DC0E1E8F0E08081A5
:10012000806480832091860030918700809126082A
:1001300090912708281B390B30932D0820932C0809
:10014000A0E5B5E0ECD320ED37E040E050E0C5D3CA
:1001500069017A01209328083093290840932A08DE
:1001600050932B0839E01CC0832F032E000C990BF1
:10017000FC013197EE0FFF1FEE0FFF1FE05DF74F01
:100180004081518162817381880F991F880F991F67
:10019000FC01E05DF74F40835183628373833150EC
:1001A000131614F3C0923008D0923108E09232084E
:1001B000F0923308FF91EF91BF91AF919F918F9192
:1001C0007F916F915F914F913F912F91FF90EF90B1
:1001D000DF90CF900F900FBE0F901F9018958AB1AF
:1001E00080688AB9E1E8F0E080818068808380815E
:1001F00083608083808188608083AFE6B0E08C91EB
:1002000082628C938081806480838CE594E49093F7
:1002100089008093880080E00DC0E82FF0E0EE0FA9
:10022000FF1FEE0FFF1FE05DF74F10821182128259
:1002300013828F5F8A3088F3789408950F931F9309
:1002400080E040E050E0BA010FC094E08902F00184
:100250001124E05DF74F0081118122813381400F2D
:10026000511F621F731F8F5F8A307CF3CB01BA016D
:100270002AE030E040E050E030D3CA01B9011F91DC
:100280000F9108950F931F93CF9332D2C0E04FC0C8
:100290002FD240911F015091200160E080E0ACD24C
:1002A000CB30D0F42C2F30E0C901880F991F220FDA
:1002B000331F220F331F220F331F4AE060E071E02B
:1002C000820F931F4BD380E091E0A3D280911B015A
:1002D00090911C019ED205C080911D0190911E013C
:1002E00098D2EC2FF0E0EE0FFF1FED5FFE4F01E024
:1002F00010E025E430E046E450E06EE070E08081FC
:10030000918193D22FEF81EE94E021508040904074
:10031000E1F700C00000CB3049F42FEF81EE94E00C
:10032000215080409040E1F700C00000CF5FCC300A
:1003300008F4AECFDDD1CF911F910F9108951F9298
:100340000F920FB60F9211248F939F9398B180E272
:10035000892788B99F918F910F900FBE0F901F90A2
:1003600018951F920F920FB60F9211248F93EF934F
:10037000FF93EAE7F0E0808180648083FF91EF9152
:100380008F910F900FBE0F901F9018951F920F9294
:100390000FB60F9211248F939F93809178009091C4
:1003A000790090932F0880932E089F918F910F9042
:1003B0000FBE0F901F9018958AB18B7F8AB98BB1B1
:1003C00084608BB9E9E6F0E08081826080838DB340
:1003D00081608DBB87B1806287B988B1806288B93E
:1003E0000895ECE7F0E080818F77808380818064DE
:1003F00080838081807F8083EAE7F0E0808180686D
:100400008083808188608083808187608083EEE63E
:10041000F0E080818160808385B58D7F85BD85B565
:10042000856085BD78940895CF93DF9300D000D088
:100430001F92CDB7DEB772D1D2DE35D223DFBCDF5B
:10044000D0DF85E0E3E5F1E0DE01119601900D9249
:100450008A95E1F7C12CD12C76014AD1EFDE6852A2
:100460007109810991092AE030E040E050E035D27D
:10047000ACE3B6EF6FD260577F428C4F9F4F28EEB0
:1004800033E040E050E029D249015A0129EE8216BA
:1004900023E0920608F455C04AE0BE016F5F7F4F2B
:1004A0008AEF90E05BD241E251E060E080E0A4D1CD
:1004B00087E291E0AED14AE0BE016F5F7F4FC40199
:1004C0004DD24DE251E061E080E096D187E291E0CB
:1004D000A0D14AE0BE016F5F7F4FC6013FD24DE21F
:1004E00051E062E080E088D187E291E092D1809192
:1004F0002E0890912F088C35934058F443E351E037
:1005000063E080E079D14BE351E064E080E074D1B6
:100510000AC043E351E063E080E06ED144E451E07F
:1005200064E080E069D101E010E025E430E046E4D9
:1005300050E06EE070E08091190190911A0175D140
:10054000AEC0A8EEB3E0A501940144275527F6D12B
:1005500024EC39E040E050E0C0D1222E332EC22EF0
:10056000D32EE42EF52E80E090E0DC0120E030E098
:100570004BE050E017C0C816D906EA06FB0668F043
:100580002C013D0169E0460E511C611C711C4C148C
:100590005D046E047F0408F0A9012F5F3F4F0A96A7
:1005A000A11DB11D8B359105A105B10520F384E690
:1005B000C816D104E104F10411F44AE050E04115F9
:1005C000510561F401E010E025E430E046E450E03C
:1005D0006EE070E08CE896E028D110C0440F551F03
:1005E000FA01ED5FFE4F01E010E025E430E046E463
:1005F00050E06EE070E08081918117D14AE0BE0149
:100600006F5F7F4F8AEF90E0A9D141E251E060E057
:1006100080E0F2D0CE010196FCD08AE491E0F9D0DE
:100620004AE0BE016F5F7F4FC40198D14DE251E0B7
:1006300061E080E0E1D0CE010196EBD08AE491E068
:10064000E8D04AE0BE016F5F7F4F822D932D86D1A7
:100650004DE251E062E080E0CFD0CE010196D9D0EA
:100660008DE491E0D6D080912E0890912F088C35A2
:10067000934058F443E351E063E080E0BDD04BE3A6
:1006800051E064E080E0B8D00AC043E351E063E0A9
:1006900080E0B2D040E551E064E080E0ADD06FEFA3
:1006A00085EA9EE0615080409040E1F700C0000084
:1006B000D4CE613029F495B1977F95B920E015C06B
:1006C00095B1986095B9FACF882324F495B19460D8
:1006D00095B903C095B19B7F95B995B19D7F95B9AB
:1006E000880F95B1926095B92F5F283068F308950F
:1006F000CF93DF9361E08CE0DCDF61E080E8D9DF5D
:10070000C0E0D0E004C060E080E0D3DF2196C83FC5
:1007100081E0D807C0F3DF91CF91089584B1806262
:1007200084B984B1806184B984B1886084B984B1AA
:10073000846084B984B1826084B985B1877F85B9CA
:1007400085B1806285B985B1886085B985B18460DD
:1007500085B985B1826085B98FE99FE00197F1F78E
:1007600000C0000085B18F7D85B995E09A95F1F7BD
:10077000000085B1806285B985E08A95F1F70000B7
:1007800061E081E296DF61E088EC93DF61E086E082
:1007900090DF61E083E18DDF61E080E28ADF61E08C
:1007A0008CE087DFA5CF0895CF93C82F862F61E017
:1007B00080647FDF61E08C2F80687BDFCF910895BC
:1007C000CF93DF93D0EED80FC0E011C08D2F90E013
:1007D000FC01EE0FFF1FE80FF91FEE0FFF1FEE5990
:1007E000FE4FEC0FF11D60E0808163DFCF5FC6300C
:1007F00068F3DF91CF910895CF93DF93EA01D4DFBF
:1008000002C0DEDF219688818111FBCFDF91CF917D
:100810000895CF93DF93EC0102C0D2DF2196888147
:100820008111FBCFDF91CF9108957F928F929F929C
:10083000AF92BF92CF92DF92EF92FF920F931F93EE
:10084000CF93DF935C016B017A01822F722E602FB0
:10085000ABDFC0E0D0E0812C912C14C060E0F5014A
:10086000EC0FFD1F808125DF8FEF881A980A8C140A
:100870009D0439F40F5F1F4F602F872D95DF812C6A
:10088000912C2196CE15DF0548F3DF91CF911F9172
:100890000F91FF90EF90DF90CF90BF90AF909F901F
:1008A0008F907F9008950F931F9322DF01E010E057
:1008B00028E030E044E551E064E470E082ED96E049
:1008C000B4DF2FEF83E294EF215080409040E1F7B6
:1008D00000C000001F910F910895A1E21A2EAA1BDB
:1008E000BB1BFD010DC0AA1FBB1FEE1FFF1FA217E0
:1008F000B307E407F50720F0A21BB30BE40BF50BDD
:10090000661F771F881F991F1A9469F76095709565
:10091000809590959B01AC01BD01CF010895A29FE8
:10092000B001B39FC001A39F700D811D1124911DC3
:10093000B29F700D811D1124911D0895F0DFA59FB8
:10094000900DB49F900DA49F800D911D11240895CA
:10095000B7FFF4CFF3DF821B930B0895BB274A3018
:1009600031F4992322F4BDE2909581959F4F01C007
:10097000BB27FB015527AA27880F991FAA1FA41779
:1009800010F0A41B83955051B9F7A05DAA3308F06D
:10099000A95DA193009779F7B111B1931192CB01A1
:1009A00000C0DC01FC01672F71917723E1F73297DA
:1009B00004C07C916D9370836291AE17BF07C8F33A
:0609C0000895F894FFCF3A
:1009C6003030008C060006BA0574052E05E804A230
:1009D600045C041604D0038A0346064D01440158FC
:1009E60001566D61783A006572726F7200566163E6
:1009F600743A005374617475733A004F7665726683
:100A06006C6F77004572726F7200204C00202500D3
:100A16004F4B00303030300057617465722061747E
:100A260020000000000000000000002F0000000071
:100A36000700070000147F147F1400242A7F2A125F
:100A4600006264081323003649552250000005034E
:100A5600000000001C224100000041221C0000147E
:100A6600083E08140008083E0808000000A06000C0
:100A76000008080808080000606000000020100850
:100A86000402003E5149453E0000427F40000042BC
:100A960061514946002141454B31001814127F101F
:100AA600002745454539003C4A494930000171094E
:100AB600050300364949493600064949291E000002
:100AC60036360000000056360000000814224100A9
:100AD60000141414141400004122140800020151D9
:100AE600090600324959513E007C1211127C007FE2
:100AF60049494936003E41414122007F4141221C7D
:100B0600007F49494941007F09090901003E4149E1
:100B1600497A007F0808087F0000417F41000020D5
:100B260040413F01007F08142241007F4040404081
:100B3600007F020C027F007F0408107F003E4141C7
:100B4600413E007F09090906003E4151215E007FB2
:100B5600091929460046494949310001017F010129
:100B6600003F4040403F001F2040201F003F4038CC
:100B7600403F00631408146300070870080700610B
:100B86005149454300007F41410000552A552A55E9
:100B9600000041417F000004020102040040404081
:100BA6004040000001020400002054545478007FA5
:100BB6004844443800384444442000384444487F7C
:100BC60000385454541800087E0901020018A4A4E1
:100BD600A47C007F080404780000447D40000040A7
:100BE60080847D00007F102844000000417F400083
:100BF600007C04180478007C080404780038444417
:100C0600443800FC242424180018242418FC007CF2
:100C16000804040800485454542000043F4440206B
:100C2600003C4040207C001C2040201C003C403002
:100C3600403C004428102844001CA0A0A07C00448E
:100C460064544C44141414141414FE01FDFDFDFDEB
:100C5600FDFDFDFDFDFD01FEFF00FFFFFFFFFFFFA8
:100C6600FFFFFFFF00FFFF00FFFFFFFFFFFFFFFF8C
:100C7600FFFF00FFFF00FFFFFFFFFFFFFFFFFFFF7C
:100C860000FF070405050505050505050505040717
:100C9600FE01E1E1E1E1E1E1E1E1E1E101FEFF0087
:100CA600FFFFFFFFFFFFFFFFFFFF00FFFF00FFFF4C
:100CB600FFFFFFFFFFFFFFFF00FFFF00FFFFFFFF3C
:100CC600FFFFFFFFFFFF00FF0704050505050505FC
:100CD600050505050407FE010101010101010101E8
:100CE600010101FEFF00FFFFFFFFFFFFFFFFFFFF08
:100CF60000FFFF00FFFFFFFFFFFFFFFFFFFF00FFFB
:100D0600FF00FFFFFFFFFFFFFFFFFFFF00FF0704DE
:100D1600050505050505050505050407FE0101018F
:100D2600010101010101010101FEFF00F8F8F8F8D7
:100D3600F8F8F8F8F8F800FFFF00FFFFFFFFFFFFE5
:100D4600FFFFFFFF00FFFF00FFFFFFFFFFFFFFFFAB
:100D5600FFFF00FF07040505050505050505050553
:100D66000407FE010101010101010101010101FE6A
:100D7600FF00C0C0C0C0C0C0C0C0C0C000FFFF00F0
:100D8600FFFFFFFFFFFFFFFFFFFF00FFFF00FFFF6B
:100D9600FFFFFFFFFFFFFFFF00FF07040505050537
:100DA6000505050505050407FE010101010101010F
:100DB6000101010101FEFF0000000000000000002B
:100DC600000000FFFF00FEFEFEFEFEFEFEFEFEFE33
:100DD60000FFFF00FFFFFFFFFFFFFFFFFFFF00FF1A
:100DE6000704050505050505050505050407FE01B6
:100DF6000101010101010101010101FEFF000000E5
:100E0600000000000000000000FFFF00E0E0E0E05E
:100E1600E0E0E0E0E0E000FFFF00FFFFFFFFFFFF94
:100E2600FFFFFFFF00FF070405050505050505058E
:100E360005050407FE01010101010101010101018E
:100E460001FEFF000000000000000000000000FF9F
:100E5600FF000000000000000000000000FFFF008F
:100E6600FFFFFFFFFFFFFFFFFFFF00FF0704050572
:100E760005050505050505050407FE010101010136
:100E860001010101010101FEFF0000000000000058
:100E96000000000000FFFF0000000000000000004E
:100EA600000000FFFF00F8F8F8F8F8F8F8F8F8F88E
:100EB60000FF0704050505050505050505050407E5
:100EC600FE010101010101010101010101FEFF0015
:100ED6000000000000000000000000FFFF0000000E
:100EE600000000000000000000FFFF00C0C0C0C0FE
:100EF600C0C0C0C0C0C000FF070405050505050544
:100F0600050505050407FE010101C161212161C135
:100F1600010101FEFF000000FF00000000FF0000CD
:100F260000FFFF0000001FF08080F01F000000FFA0
:100F3600FF000000003033333000000000FF0704DC
:100F4600040404040404040404040407FE01010167
:100F5600010101010101010101FEFF000000000085
:100F660000000000000000FFFF000000000000007D
:100F76000000000000FFFF0000000000000000006D
:100F8600000000FF07040404040404040404040429
:100F96000407000000000000000000FFFFFFFFFF45
:100FA600FF0303030303033C3C3C3CFCE00000005E
:100FB60000FFFFFF83838383838300000000009F7D
:100FC6009F9F9F83838383FFFFFFFF000000000036
:100FD600000000000000000000000000000000FF0C
:100FE600FFFFFFFFFF808080808080606060607F01
:100FF6001F00000000FFFFFFFF8F8F8F8F8F000005
:10100600000000FFFFFFFF8F8F8F8F8F8F8F8F0066
:1010160000000000000000000000000000000000CA
:10102600000000EFEFEFEFEFEFEFEFEFEFEFEFE0A6
:10103600E0E0E0E0E0E0E0E0E0EFEFEFEFEFEFEF41
:10104600EFEFE0E0E0E0E0EFEFEFEFEFEFEFEFEFF5
:10105600EFEFEF00000000000000000000000000BD
:101066000000000000000019191919191919199919
:1010760019191919191919191919191919191919DA
:10108600191919191919191919191919191999194A
:10109600191919191919190000000000000000009B
:1010A600000000000608301C0E1C30080600322A1C
:1010B6002A3E023F2222001C2A2A2A2C003E020235
:1010C600000000262A2A32029C60180600262A2AD8
:1010D60032023F2222001C2A2A2A2C003E02022229
:0610E6003C02023E000086
:00000001FF
