S01A000077617465725F6865696768745F6D657465722E7372656393
S113000033C000004CC000004AC0000048C00000DB
S113001046C0000044C0000042C0000040C00000D0
S11300203EC000003CC0000054C0000039C00000C5
S113003036C0000034C0000032C0000030C00000F0
S11300402EC000002CC000002AC0000028C0000000
S113005026C0000024C0000022C0000020C0000010
S11300601EC000001CC0000011241FBECFEFD8E04A
S1130070DEBFCDBF17E0A0E0B1E0EEE9F5E002C0DD
S113008005900D92AC31B107D9F727E0ACE1B7E0A8
S113009001C01D92A432B207E1F7BAD07EC2B0CF3C
S11300A01F920F920FB60F9211248F939F939BB1BF
S11300B080E498279BB995E39A95F1F700009BB1EA
S11300C089278BB99F918F910F900FBE0F901F902E
S11300D018951F920F920FB60F9211240F931F932E
S11300E02F933F934F935F936F937F938F939F933C
S11300F0AF93BF93EF93FF938091810086FF0EC06F
S1130100E1E8F0E080818F7B80838091860090918C
S1130110870090931D0780931C0740C0E1E8F0E03E
S113012080818064808380918600909187002091F3
S11301301C0730911D07821B930B90932307809318
S11301402207A0E0B0E0880F991FAA1FBB1F880FE9
S1130150991FAA1FBB1F880F991FAA1FBB1FAC01A1
S1130160BD01440F551F661F771F440F551F661F9F
S1130170771F8C019D01040F151F261F371FC9010E
S1130180B8012AE330E040E050E0B2D120931E07EA
S113019030931F074093200750932107FF91EF915D
S11301A0BF91AF919F918F917F916F915F914F918B
S11301B03F912F911F910F910F900FBE0F901F90A1
S11301C018958AB180648AB9E1E8F0E0808180689A
S11301D08083808183608083808188608083AFE6B0
S11301E0B0E08C9182628C938081806480838CE502
S11301F094E49093890080938800789408956091A2
S11302001E0770911F078091200790912107089580
S1130210CF93DF9300D000D01F92CDB7DEB767D065
S1130220D0DFFFD040E050E068EF71E083E295E07A
S1130230D9D02FEF87EA91E6215080409040E1F732
S113024000C000003ED03DD0DADFFDD0DC01CB01A0
S11302504AE0BE016F5F7F4F6DD1AE014F5F5F4FCC
S113026060E080E0B2D040E051E060E086E0ADD0F4
S11302702FEF83ED90E3215080409040E1F700C0E0
S11302800000E1CF613029F495B1977F95B920E062
S113029015C095B1986095B9FACF882324F495B127
S11302A0946095B903C095B19B7F95B995B19D7F35
S11302B095B9880F95B1926095B92F5F283068F38E
S11302C00895CF93DF9361E08CE0DCDF61E080E8A8
S11302D0D9DFC0E0D0E004C060E080E0D3DF219645
S11302E0C83F81E0D807C0F3DF91CF91089584B16E
S11302F0806284B984B1806184B984B1886084B92E
S113030084B1846084B98AB182608AB985B1877FF7
S113031085B985B1806285B985B1886085B985B1B3
S1130320846085B985B1826085B98FE99FE00197C2
S1130330F1F700C0000085B18F7D85B995E09A95ED
S1130340F1F7000085B1806285B985E08A95F1F7FF
S1130350000061E081E296DF61E088EC93DF61E018
S113036086E090DF61E083E18DDF61E080E28ADF97
S113037061E08CE087DFA5CF0895CF93C82F862F47
S113038061E080647FDF61E08C2F80687BDFCF9148
S11303900895CF93DF93D0EED80FC0E011C08D2F16
S11303A090E0FC01EE0FFF1FE80FF91FEE0FFF1F97
S11303B0ED5FFE4FEC0FF11D60E0808163DFCF5FE6
S11303C0C63068F3DF91CF910895CF93DF93EA01AC
S11303D0D4DF02C0DEDF219688818111FBCFDF915B
S11303E0CF910895EF92FF920F931F93CF93DF93D2
S11303F07C018B01642F80E0C0DFC0E0D0E007C047
S1130400F701EC0FFD1F60E080813CDF2196C017EF
S1130410D107B0F3DF91CF911F910F91FF90EF902F
S113042008954FDF2FEF83ED90E3215080409040FB
S1130430E1F700C0000040E050E068EF71E08BE2BB
S113044093E0D0CF089533D088F09F5790F0B92F20
S11304509927B751A0F0D1F0660F771F881F991F15
S11304601AF0BA95C9F712C0B13081F03AD0B1E0B0
S1130470089537C0672F782F8827B85F39F0B93FC0
S1130480CCF3869577956795B395D9F73EF4909517
S11304908095709561957F4F8F4F9F4F089557FDBD
S11304A09058440F551F59F05F3F71F04795880FDE
S11304B097FB991F61F09F3F79F087950895121675
S11304C013061406551FF2CF4695F1DF08C0161621
S11304D017061806991FF1CF8695710561050894D2
S11304E00895E894BB2766277727CB0197F90895E9
S11304F0A1E21A2EAA1BBB1BFD010DC0AA1FBB1F24
S1130500EE1FFF1FA217B307E407F50720F0A21B95
S1130510B30BE40BF50B661F771F881F991F1A9402
S113052069F760957095809590959B01AC01BD012C
S1130530CF010895BB274A3031F4992322F4BDE258
S1130540909581959F4F01C0BB27FB015527AA2792
S1130550880F991FAA1FA41710F0A41B839550514C
S1130560B9F7A05DAA3308F0A95DA193009779F7C4
S1130570B111B1931192CB0100C0DC01FC01672FD2
S113058071917723E1F7329704C07C916D93708366
S11105906291AE17BF07C8F30895F894FFCF29
S113059E6D6D000000000000000000002F00000040
S11305AE000700070000147F147F1400242A7F2AFA
S11305BE12006264081323003649552250000005C8
S11305CE03000000001C224100000041221C000018
S11305DE14083E08140008083E0808000000A06035
S11305EE00000808080808000060600000002010E1
S11305FE080402003E5149453E0000427F4000007F
S113060E4261514946002141454B31001814127F75
S113061E10002745454539003C4A494930000171CF
S113062E09050300364949493600064949291E0081
S113063E0036360000000056360000000814224131
S113064E00001414141414000041221408000201B2
S113065E51090600324959513E007C1211127C0098
S113066E7F49494936003E41414122007F414122A2
S113067E1C007F49494941007F09090901003E4197
S113068E49497A007F0808087F0000417F41000035
S113069E2040413F01007F08142241007F4040402A
S11306AE40007F020C027F007F0408107F003E4151
S11306BE41413E007F09090906003E4151215E0079
S11306CE7F091929460046494949310001017F0134
S11306DE01003F4040403F001F2040201F003F408C
S11306EE38403F00631408146300070870080700BD
S11306FE615149454300007F41410000552A552A66
S113070E55000041417F00000402010204004040F4
S113071E404040000001020400002054545478006C
S113072E7F48444438003844444420003844444804
S113073E7F00385454541800087E0901020018A48E
S113074EA4A47C007F080404780000447D400000CB
S113075E4080847D00007F102844000000417F40CB
S113076E00007C04180478007C08040478003844E3
S113077E44443800FC242424180018242418FC00B3
S113078E7C0804040800485454542000043F444098
S113079E20003C4040207C001C2040201C003C409B
S11307AE30403C004428102844001CA0A0A07C002B
S11307BE4464544C44141414141414FFFFFFFFFF28
S11307CEFFFFFFFFFFFFFFFFFFFFFF3F3F3F3F3FE7
S11307DE3F3F3F3F3F3F3FFFFFFFFFFFFFFFFFFF57
S11307EEFF3F3F3F3F3F3F3F3F3FFFFFFFFFFF3F87
S11307FE3F3F3F3F3F3F3F3F3F3F3FFFFFFFFFFF37
S113080EFFFFFFFFFFFFFFFFFFFFFFFFFFFFFFFFE6
S113081EFFFFFFFFFFFFFFFFFFFFFFFFFFFFFF00D5
S113082E0000000000FFFFFFFFFFFFF0F0F0F000FC
S113083E07FFFFFFFF0000001F1F1F1F1F1FFFFFEB
S113084EFFFFFF181818181F1F1F1F00000000FFBE
S113085EFFFFFFFFFFFFFFFFFFFFFFFFFFFFFFFF96
S113086EFFFFFFFFFFFFFFFFFFFFFFFFFFFFFFFF86
S113087EFFFFFF0000000000001F1F1F1F1F1FE7C8
S113088EE7E7E7E0F8FFFFFFFF000000001C1C1C79
S113089E1C1CFFFFFFFFFF000000001C1C1C1C1C87
S11308AE1C1C1CFFFFFFFFFFFFFFFFFFFFFFFFFFEF
S11308BEFFFFFFFFFFFFFFFFFFFFFFFFFFFFFFFF36
S11308CEFFFFFFFFFFFFFF84848484848484848479
S11308DE84848487878787878787878787848484A8
S11308EE84848484848487878787878484848484A7
S11308FE84848484848484FFFFFFFFFFFFFFFFFF53
S113090EFFFFFFFFFFFFFFFFFFFFFFFFFFFFFFFFE5
S113091EFFFF7FFFFFFF7FFFFFFF7FF97979797973
S113092E7919797979197979F9F9797979F9F979E5
S113093E7979F9F9F97979797979F9F9F979F97995
S113094E79797979197979F9F979797FFFFF7F7F47
S113095E7F7FFF7F7F7FFFFFFFFFFFFFFFFFFFFF15
S113096EFFFFFFFFFFFFFEFDF3F8FCF8F3FDFEFFB4
S113097EF3F5F5F0FFF0F7F7FFF0F7F7FFF8F5F5FD
S113098EF5F4FFF0FFFFFFFFFFF6F5F5F3FFD8E7F1
S113099EF9FEFFF6F5F5F3FFF0F7F7FFF8F5F5F5C9
S11309AEF4FFF0FFFFF7F0FFFFF0FFFFFFFFFFFF85
S11309BEFFFFFFFFFFFFFFFFFFFFFFFFFFFFFFFF35
S11309CEFFFFFF3F3F3F3F3F3F3F3F3F3F3F3FFF25
S11309DEFFFFFFFFFFFFFFFFFF3F3F3F3F3F3F3F55
S11309EE3F3FFFFFFFFFFF3F3F3F3F3F3F3F3F3F45
S11309FE3F3F3FFFFFFFFFFFFFFFFFFFFFFFFFFF35
S1130A0EFFFFFFFFFFFFFFFFFFFFFFFFFFFFFFFFE4
S1130A1EFFFFFFFFFFFFFF000000000000FFFFFFCE
S1130A2EFFFFFFF0F0F0F00007FFFFFFFF000000F4
S1130A3E1F1F1F1F1F1FFFFFFFFFFF181818181F70
S1130A4E1F1F1F00000000FFFFFFFFFFFFFFFFFF40
S1130A5EFFFFFFFFFFFFFFFFFFFFFFFFFFFFFFFF94
S1130A6EFFFFFFFFFFFFFFFFFFFFFF00000000007F
S1130A7E001F1F1F1F1F1FE7E7E7E7E0F8FFFFFF39
S1130A8EFF000000001C1C1C1C1CFFFFFFFFFF00CE
S1130A9E0000001C1C1C1C1C1C1C1CFFFFFFFFFF69
S1130AAEFFFFFFFFFFFFFFFFFFFFFFFFFFFFFFFF44
S1130ABEFFFFFFFFFFFFFFFFFFFFFFFFFFFFFF84AF
S1130ACE84848484848484848484848787878787C5
S1130ADE87878787878484848484848484848787AF
S1130AEE878787848484848484848484848484FF30
S1130AFEFFFFFFFFFFFFFFFFFFFFFFFFFFFFFFFFF4
S1130B0EFFFFFFFFFFFFFFFFFFFFFFFFFFFFFFFFE3
S1130B1EFFFFFFF9F9F9F9F9F9F9F9F9F9F9F9F921
S1130B2EF9F9F9F9F9F9F9F9F9F9F9F9F9F9F9F923
S1130B3EF9F9F9F9F9F9F9F9F9F9F9F9F9F9F9F913
S1130B4EF9F9F9FFFFFFFFFFFFFFFFFFFFFFFFFFB5
S1130B5EFFFFFFFFFFFFFFFFFFFFFFFFFFFFFFFF93
S1130B6EFBF3CBFFE7DFFBFBFF83AB83BFFB81BB59
S1130B7EFFFB81BBFFFFA3ABABEFBB83BBFBFFFF55
S1130B8EFFFFABABFFFBF3EBDFFBFBFFABABFFFB03
S1130B9E81BBFFFFA3ABABEFFF83B7BB83BFBB83AD
S10F0BAEBFFFFFFFFFFFFFFFFFFFFF0082
S9030000FC
