:1000000033C000004CC000004AC0000048C00000DF
:1000100046C0000044C0000042C0000040C00000D4
:100020003EC000003CC0000054C0000039C00000C9
:1000300036C0000034C0000032C0000030C00000F4
:100040002EC000002CC000002AC0000028C0000004
:1000500026C0000024C0000022C0000020C0000014
:100060001EC000001CC0000011241FBECFEFD8E04E
:10007000DEBFCDBF15E0A0E0B1E0E8E1FDE002C0E9
:1000800005900D92AE34B107D9F725E0AEE4B5E0A6
:1000900001C01D92A036B207E1F7CED03BC6B0CF6B
:1000A0001F920F920FB60F9211248F939F939BB1C3
:1000B00080E498279BB995E39A95F1F700009BB1EE
:1000C00089278BB99F918F910F900FBE0F901F9032
:1000D00018951F920F920FB60F921124CF92DF92B4
:1000E000EF92FF922F933F934F935F936F937F9382
:1000F0008F939F93AF93BF93CF93DF93EF93FF9330
:100100008091810086FF0EC0E1E8F0E080818F7B66
:100110008083809186009091870090935905809309
:1001200058054AC0E1E8F0E08081806480838091D6
:1001300086009091870090934F0580934E059F9382
:100140008F9380E091E09F938F9308D360914E0549
:1001500070914F058091580590915905EB01C81B8E
:10016000D90BD0935705C0935605609154057091F3
:10017000550580E090E0DED16B017C01BE01DD0F12
:10018000880B990BD9D1A701960162D220E030E00B
:1001900040E251E45DD220E030E041E154E462D13C
:1001A00060935005709351058093520590935305C9
:1001B0000F900F900F900F90FF91EF91DF91CF91E3
:1001C000BF91AF919F918F917F916F915F914F916F
:1001D0003F912F91FF90EF90DF90CF900F900FBE47
:1001E0000F901F9018958AB180648AB9E1E8F0E019
:1001F0008081806880838081836080838081886043
:100200008083AFE6B0E08C9182628C9380818064C1
:1002100080838CE594E4909389008093880084E047
:1002200090E09093550580935405789408958091BB
:100230005605909157050895CF93DF9300D000D0D5
:100240001F92CDB7DEB762D0CEDFFAD02FEF87EAAC
:1002500091E6215080409040E1F700C0000040D07E
:1002600043E051E060E080E0BFD041E151E061E077
:1002700080E0BAD035D0DBDF4AE0BE016F5F7F4F50
:100280004AD2AE014F5F5F4F60E080E0ADD02FEF0C
:1002900083ED90E3215080409040E1F700C00000E2
:1002A000E9CF613029F495B19D7F95B920E015C063
:1002B00095B1926095B9FACF882324F495B19160F5
:1002C00095B903C095B19E7F95B99BB19F779BB9B6
:1002D000880F9BB190689BB92F5F283068F3089511
:1002E000CF93DF9361E08CE0DCDF61E080E8D9DF71
:1002F000C0E0D0E004C060E080E0D3DF2196C83FDA
:1003000081E0D807C0F3DF91CF91089584B1886070
:1003100084B984B1846084B984B1826084B984B1C1
:10032000816084B98AB180688AB985B18D7F85B9C9
:1003300085B1886085B985B1826085B985B18160F4
:1003400085B98BB180688BB98FE99FE00197F1F790
:1003500000C0000085B1877F85B995E09A95F1F7D7
:10036000000085B1886085B985E08A95F1F70000C5
:1003700061E081E296DF61E088EC93DF61E086E096
:1003800090DF61E083E18DDF61E080E28ADF61E0A0
:100390008CE087DFA5CF0895CF93C82F862F61E02B
:1003A00080647FDF61E08C2F80687BDFCF910895D0
:1003B000CF93DF93D0EED80FC0E011C08D2F90E027
:1003C000FC01EE0FFF1FE80FF91FEE0FFF1FE25DAC
:1003D000FE4FEC0FF11D60E0808163DFCF5FC63020
:1003E00068F3DF91CF910895CF93DF93EA01D4DFD3
:1003F00002C0DEDF219688818111FBCFDF91CF9192
:100400000895EF92FF920F931F93CF93DF937C0198
:100410008B01642F80E0C0DFC0E0D0E007C0F701AF
:10042000EC0FFD1F60E080813CDF2196C017D107F3
:10043000B0F3DF91CF911F910F91FF90EF9008954E
:100440004FDF2FEF83ED90E3215080409040E1F7A4
:1004500000C0000040E050E068EF71E086E593E006
:10046000D0CF08950CD0BAC0B2D040F0A9D030F0AF
:1004700021F45F3F19F09BC05111E4C09EC0BFD072
:1004800098F39923C9F35523B1F3951B550BBB275B
:10049000AA2762177307840738F09F5F5F4F220F08
:1004A000331F441FAA1FA9F333D00E2E3AF0E0E801
:1004B00030D091505040E695001CCAF729D0FE2F4D
:1004C00027D0660F771F881FBB1F261737074807DF
:1004D000AB07B0E809F0BB0B802DBF01FF27935895
:1004E0005F4F2AF09E3F510568F061C0ABC05F3F8F
:1004F000ECF3983EDCF3869577956795B795F7957D
:100500009F5FC9F7880F911D9695879597F9089574
:10051000E1E0660F771F881FBB1F62177307840710
:10052000BA0720F0621B730B840BBA0BEE1F88F71F
:10053000E0950895E89409C097FB3EF49095809566
:10054000709561957F4F8F4F9F4F9923A9F0F92F99
:1005500096E9BB279395F695879577956795B79517
:10056000F111F8CFFAF4BB0F11F460FF1BC06F5FFD
:100570007F4F8F4F9F4F16C0882311F096E911C00F
:10058000772321F09EE8872F762F05C0662371F030
:1005900096E8862F70E060E02AF09A95660F771F44
:1005A000881FDAF7880F9695879597F9089597F938
:1005B0009F6780E870E060E008959FEF80EC089509
:1005C00000240A9416161706180609060895002432
:1005D0000A9412161306140605060895092E0394AC
:1005E000000C11F4882352F0BB0F40F4BF2B11F420
:1005F00060FF04C06F5F7F4F8F4F9F4F089557FD7F
:100600009058440F551F59F05F3F71F04795880F80
:1006100097FB991F61F09F3F79F087950895121617
:1006200013061406551FF2CF4695F1DF08C01616C3
:1006300017061806991FF1CF869571056105089474
:100640000895E894BB2766277727CB0197F908958B
:100650000BD0C4CFB5DF28F0BADF18F0952309F02E
:10066000A6CFABCF1124EECFCADFA0F3959FD1F375
:10067000950F50E0551F629FF001729FBB27F00D50
:10068000B11D639FAA27F00DB11DAA1F649F6627A5
:10069000B00DA11D661F829F2227B00DA11D621FF4
:1006A000739FB00DA11D621F839FA00D611D221FAE
:1006B000749F3327A00D611D231F849F600D211D92
:1006C000822F762F6A2F11249F5750408AF0E1F035
:1006D00088234AF0EE0FFF1FBB1F661F771F881F7E
:1006E00091505040A9F79E3F510570F060CFAACFBE
:1006F0005F3FECF3983EDCF3869577956795B79569
:10070000F795E7959F5FC1F7FE2B880F911D969592
:10071000879597F90895BB274A3031F4992322F43D
:10072000BDE2909581959F4F01C0BB27FB015527E6
:10073000AA27880F991FAA1FA41710F0A41B83953E
:100740005051B9F7A05DAA3308F0A95DA1930097B5
:1007500079F7B111B1931192CB01FBC1A0E0B0E0E8
:10076000E3EBF3E0B0C2AE014B5F5F4FFA01619182
:100770007191AF0180915C0590915D0502D0E2E03E
:10078000BEC2ABE0B0E0E6ECF3E08DC26C017B01F1
:100790008A01FC0117821682838181FFBFC1CE01CD
:1007A00001963C01F6019381F70193FD859193FF3A
:1007B00081917F01882309F4ADC1853239F493FD1D
:1007C000859193FF81917F01853221F4B60190E0FC
:1007D000D0D1E8CF912C212C312CFFE1F315D8F0AA
:1007E0008B3279F038F4803279F08332A1F4232D02
:1007F00020611DC08D3261F0803369F4232D2160AA
:1008000016C0832D8260382EE32DE4603E2E2AC070
:10081000F32DF8601DC037FC2DC020ED280F2A30C5
:1008200040F08E32B9F436FC75C1232D2064322E8F
:1008300019C036FE06C08AE0989E200D1124922E23
:1008400011C0EAE02E9E200D1124222EF32DF0621D
:100850003F2E08C08C3621F4832D8068382E02C0CC
:10086000883641F4F70193FD859193FF81917F01D3
:100870008111B3CF982F9F7D9554933028F40C5F4E
:100880001F4F9FE399830DC0833631F0833771F09A
:10089000833509F055C020C0F801808189830E5F3F
:1008A0001F4F88248394912C530112C02801F2E039
:1008B0004F0E511CF801A080B18036FE03C0692D97
:1008C00070E002C06FEF7FEFC50138D14C018201AB
:1008D000F32DFF773F2E15C0280122E0420E511C58
:1008E000F801A080B18036FE03C0692D70E002C01F
:1008F0006FEF7FEFC50117D14C01F32DF0683F2E4C
:10090000820133FC19C0822D90E088169906A0F46C
:10091000B60180E290E02DD12A94F5CFF50137FCA5
:10092000859137FE81915F01B60190E022D12110BF
:100930002A9421E0821A91088114910479F7E1C088
:10094000843611F0893639F5F80137FE07C0608129
:100950007181828193810C5F1F4F08C0608171811A
:10096000072E000C880B990B0E5F1F4FF32DFF769F
:100970003F2E97FF09C090958095709561957F4FA8
:100980008F4F9F4FF0683F2E2AE030E0A3012DD11A
:10099000882E861844C0853731F4232D2F7EB22E41
:1009A0002AE030E025C0932D997FB92E8F36C1F013
:1009B00018F4883579F0AEC0803719F0883721F007
:1009C000A9C0E92FE061BE2EB4FE0DC0FB2DF4607E
:1009D000BF2E09C034FE0AC0292F2660B22E06C0E1
:1009E00028E030E005C020E130E002C020E132E044
:1009F000F801B7FE07C060817181828193810C5F2D
:100A00001F4F06C06081718180E090E00E5F1F4F34
:100A1000A301EBD0882E8618FB2DFF773F2E36FEE4
:100A20000DC0232D2E7FA22E891458F434FE0BC046
:100A300032FC09C0832D8E7EA82E05C0B82CA32CB5
:100A400003C0B82C01C0B92CA4FE0FC0FE01E80DF4
:100A5000F11D8081803321F49A2D997EA92E09C041
:100A6000A2FE06C0B394B39404C08A2D867809F020
:100A7000B394A3FC10C0A0FE06C0B21480F4280CEE
:100A8000922C9B180DC0B21458F4B60180E290E08D
:100A900070D0B394F8CFB21418F42B1802C0982C6D
:100AA000212CA4FE0FC0B60180E390E062D0A2FE2C
:100AB00016C0A1FC03C088E790E002C088E590E082
:100AC000B6010CC08A2D867851F0A1FE02C08BE2DF
:100AD00001C080E2A7FC8DE2B60190E04AD0891403
:100AE00030F4B60180E390E044D09A94F8CF8A9431
:100AF000F301E80DF11D8081B60190E03AD081103C
:100B0000F6CF222009F44ECEB60180E290E031D03B
:100B10002A94F7CFF6018681978102C08FEF9FEF6D
:100B20002B96E2E1DCC0FC010590615070400110A1
:100B3000D8F7809590958E0F9F1F0895FC01615006
:100B4000704001900110D8F7809590958E0F9F1FEF
:100B50000895DC01FC01672F71917723E1F732974B
:100B600004C07C916D9370836291AE17BF07C8F388
:100B700008950F931F93CF93DF93FB01238121FDF2
:100B800003C08FEF9FEF2CC022FF16C04681578114
:100B9000248135814217530744F4A081B1819D011E
:100BA0002F5F3F4F318320838C93268137812F5FC6
:100BB0003F4F3783268314C08B01EC01FB01008477
:100BC000F185E02D0995892BE1F6D80116968D91D6
:100BD0009C911797019617969C938E931697CE012A
:100BE000DF91CF911F910F910895FA01AA27283024
:100BF00051F1203181F1E8946F936E7F6E5F7F4FEA
:100C00008F4F9F4FAF4FB1E03ED0B4E03CD0670F65
:100C1000781F891F9A1FA11D680F791F8A1F911DB8
:100C2000A11D6A0F711D811D911DA11D20D009F408
:100C300068943F912AE0269F11243019305D31934A
:100C4000DEF6CF010895462F4770405D4193B3E033
:100C50000FD0C9F7F6CF462F4F70405D4A3318F0DA
:100C6000495D31FD4052419302D0A9F7EACFB4E08B
:100C7000A6959795879577956795BA95C9F7009743
:100C80006105710508959B01AC010A2E06945795E4
:100C9000479537952795BA95C9F7620F731F841F3B
:100CA000951FA01D08952F923F924F925F926F92D1
:100CB0007F928F929F92AF92BF92CF92DF92EF92EC
:100CC000FF920F931F93CF93DF93CDB7DEB7CA1B6D
:100CD000DB0B0FB6F894DEBF0FBECDBF09942A8898
:100CE000398848885F846E847D848C849B84AA8440
:100CF000B984C884DF80EE80FD800C811B81AA81CD
:100D0000B981CE0FD11D0FB6F894DEBF0FBECDBF97
:080D1000ED010895F894FFCFF6
:100D180025640048656C6C6F20576F726C642021E5
:100D280000436F6D6D756E69636174696E672077D6
:100D38006974682041565220333238702000000010
:100D4800000000000000002F00000000070007005E
:100D580000147F147F1400242A7F2A12006264087A
:100D680013230036495522500000050300000000F7
:100D78001C224100000041221C000014083E0814F7
:100D88000008083E0808000000A0600000080808E5
:100D98000808000060600000002010080402003EFF
:100DA8005149453E0000427F40000042615149469A
:100DB800002141454B31001814127F10002745458A
:100DC8004539003C4A49493000017109050300369C
:100DD8004949493600064949291E000036360000AF
:100DE80000005636000000081422410000141414B4
:100DF80014140000412214080002015109060032AF
:100E08004959513E007C1211127C007F49494936EC
:100E1800003E41414122007F4141221C007F494957
:100E28004941007F09090901003E4149497A007F8B
:100E38000808087F0000417F4100002040413F0131
:100E4800007F08142241007F40404040007F020C90
:100E5800027F007F0408107F003E4141413E007F31
:100E680009090906003E4151215E007F09192946FA
:100E78000046494949310001017F0101003F4040D6
:100E8800403F001F2040201F003F4038403F006384
:100E980014081463000708700807006151494543A6
:100EA80000007F41410000552A552A550000414164
:100EB8007F0000040201020400404040404000005E
:100EC80001020400002054545478007F48444438F8
:100ED80000384444442000384444487F003854547F
:100EE800541800087E0901020018A4A4A47C007FFD
:100EF800080404780000447D4000004080847D00A0
:100F0800007F102844000000417F4000007C041846
:100F18000478007C0804047800384444443800FC11
:100F2800242424180018242418FC007C080404082D
:100F380000485454542000043F444020003C4040A2
:100F4800207C001C2040201C003C4030403C0044D9
:100F580028102844001CA0A0A07C004464544C44E1
:100F6800141414141414FFFFFFFFFFFFFFFFFFFF0B
:100F7800FFFFFFFFFFFF3F3F3F3F3F3F3F3F3F3FF9
:100F88003F3FFFFFFFFFFFFFFFFFFFFF3F3F3F3FE9
:100F98003F3F3F3F3FFFFFFFFFFF3F3F3F3F3F3F99
:100FA8003F3F3F3F3F3FFFFFFFFFFFFFFFFFFFFFC9
:100FB800FFFFFFFFFFFFFFFFFFFFFFFFFFFFFFFF39
:100FC800FFFFFFFFFFFFFFFFFFFF00000000000023
:100FD800FFFFFFFFFFFFF0F0F0F00007FFFFFFFF4C
:100FE8000000001F1F1F1F1F1FFFFFFFFFFF181814
:100FF80018181F1F1F1F00000000FFFFFFFFFFFF43
:10100800FFFFFFFFFFFFFFFFFFFFFFFFFFFFFFFFE8
:10101800FFFFFFFFFFFFFFFFFFFFFFFFFFFF0000D6
:10102800000000001F1F1F1F1F1FE7E7E7E7E0F88A
:10103800FFFFFFFF000000001C1C1C1C1CFFFFFF23
:10104800FFFF000000001C1C1C1C1C1C1C1CFFFFBC
:10105800FFFFFFFFFFFFFFFFFFFFFFFFFFFFFFFF98
:10106800FFFFFFFFFFFFFFFFFFFFFFFFFFFFFFFF88
:10107800FFFF84848484848484848484848487872C
:101088008787878787878787848484848484848400
:1010980084878787878784848484848484848484F9
:1010A8008484FFFFFFFFFFFFFFFFFFFFFFFFFFFF3E
:1010B800FFFFFFFFFFFFFFFFFFFFFFFFFF7FFFFFB8
:1010C800FF7FFFFFFF7FF979797979791979797944
:1010D800197979F9F9797979F9F9797979F9F9F958
:1010E8007979797979F9F9F979F9797979797919C8
:1010F8007979F9F979797FFFFF7F7F7F7FFF7F7F9C
:101108007FFFFFFFFFFFFFFFFFFFFFFFFFFFFFFF67
:10111800FFFEFDF3F8FCF8F3FDFEFFF3F5F5F0FF35
:10112800F0F7F7FFF0F7F7FFF8F5F5F5F4FFF0FF44
:10113800FFFFFFFFF6F5F5F3FFD8E7F9FEFFF6F539
:10114800F5F3FFF0F7F7FFF8F5F5F5F4FFF0FFFF1B
:0E115800F7F0FFFFF0FFFFFFFFFFFFFFFFFFBD
:00000001FF
